{
  "contractName": "DreamToken",
  "abi": [
    {
      "inputs": [
        {
          "internalType": "uint256",
          "name": "initialSupply",
          "type": "uint256"
        },
        {
          "internalType": "address",
          "name": "_govAddress",
          "type": "address"
        }
      ],
      "stateMutability": "nonpayable",
      "type": "constructor"
    },
    {
      "anonymous": false,
      "inputs": [
        {
          "indexed": true,
          "internalType": "address",
          "name": "owner",
          "type": "address"
        },
        {
          "indexed": true,
          "internalType": "address",
          "name": "spender",
          "type": "address"
        },
        {
          "indexed": false,
          "internalType": "uint256",
          "name": "value",
          "type": "uint256"
        }
      ],
      "name": "Approval",
      "type": "event"
    },
    {
      "anonymous": false,
      "inputs": [
        {
          "indexed": true,
          "internalType": "address",
          "name": "previousOwner",
          "type": "address"
        },
        {
          "indexed": true,
          "internalType": "address",
          "name": "newOwner",
          "type": "address"
        }
      ],
      "name": "OwnershipTransferred",
      "type": "event"
    },
    {
      "anonymous": false,
      "inputs": [
        {
          "indexed": true,
          "internalType": "address",
          "name": "from",
          "type": "address"
        },
        {
          "indexed": true,
          "internalType": "address",
          "name": "to",
          "type": "address"
        },
        {
          "indexed": false,
          "internalType": "uint256",
          "name": "value",
          "type": "uint256"
        }
      ],
      "name": "Transfer",
      "type": "event"
    },
    {
      "inputs": [
        {
          "internalType": "address",
          "name": "owner",
          "type": "address"
        },
        {
          "internalType": "address",
          "name": "spender",
          "type": "address"
        }
      ],
      "name": "allowance",
      "outputs": [
        {
          "internalType": "uint256",
          "name": "",
          "type": "uint256"
        }
      ],
      "stateMutability": "view",
      "type": "function"
    },
    {
      "inputs": [
        {
          "internalType": "address",
          "name": "spender",
          "type": "address"
        },
        {
          "internalType": "uint256",
          "name": "amount",
          "type": "uint256"
        }
      ],
      "name": "approve",
      "outputs": [
        {
          "internalType": "bool",
          "name": "",
          "type": "bool"
        }
      ],
      "stateMutability": "nonpayable",
      "type": "function"
    },
    {
      "inputs": [
        {
          "internalType": "address",
          "name": "account",
          "type": "address"
        }
      ],
      "name": "balanceOf",
      "outputs": [
        {
          "internalType": "uint256",
          "name": "",
          "type": "uint256"
        }
      ],
      "stateMutability": "view",
      "type": "function"
    },
    {
      "inputs": [],
      "name": "decimals",
      "outputs": [
        {
          "internalType": "uint8",
          "name": "",
          "type": "uint8"
        }
      ],
      "stateMutability": "view",
      "type": "function"
    },
    {
      "inputs": [
        {
          "internalType": "address",
          "name": "spender",
          "type": "address"
        },
        {
          "internalType": "uint256",
          "name": "subtractedValue",
          "type": "uint256"
        }
      ],
      "name": "decreaseAllowance",
      "outputs": [
        {
          "internalType": "bool",
          "name": "",
          "type": "bool"
        }
      ],
      "stateMutability": "nonpayable",
      "type": "function"
    },
    {
      "inputs": [],
      "name": "governmentAddress",
      "outputs": [
        {
          "internalType": "address",
          "name": "",
          "type": "address"
        }
      ],
      "stateMutability": "view",
      "type": "function"
    },
    {
      "inputs": [
        {
          "internalType": "address",
          "name": "spender",
          "type": "address"
        },
        {
          "internalType": "uint256",
          "name": "addedValue",
          "type": "uint256"
        }
      ],
      "name": "increaseAllowance",
      "outputs": [
        {
          "internalType": "bool",
          "name": "",
          "type": "bool"
        }
      ],
      "stateMutability": "nonpayable",
      "type": "function"
    },
    {
      "inputs": [],
      "name": "name",
      "outputs": [
        {
          "internalType": "string",
          "name": "",
          "type": "string"
        }
      ],
      "stateMutability": "view",
      "type": "function"
    },
    {
      "inputs": [],
      "name": "owner",
      "outputs": [
        {
          "internalType": "address",
          "name": "",
          "type": "address"
        }
      ],
      "stateMutability": "view",
      "type": "function"
    },
    {
      "inputs": [],
      "name": "renounceOwnership",
      "outputs": [],
      "stateMutability": "nonpayable",
      "type": "function"
    },
    {
      "inputs": [],
      "name": "symbol",
      "outputs": [
        {
          "internalType": "string",
          "name": "",
          "type": "string"
        }
      ],
      "stateMutability": "view",
      "type": "function"
    },
    {
      "inputs": [],
      "name": "taxPoolAddress",
      "outputs": [
        {
          "internalType": "address",
          "name": "",
          "type": "address"
        }
      ],
      "stateMutability": "view",
      "type": "function"
    },
    {
      "inputs": [],
      "name": "taxRate",
      "outputs": [
        {
          "internalType": "uint8",
          "name": "",
          "type": "uint8"
        }
      ],
      "stateMutability": "view",
      "type": "function"
    },
    {
      "inputs": [],
      "name": "totalSupply",
      "outputs": [
        {
          "internalType": "uint256",
          "name": "",
          "type": "uint256"
        }
      ],
      "stateMutability": "view",
      "type": "function"
    },
    {
      "inputs": [
        {
          "internalType": "address",
          "name": "sender",
          "type": "address"
        },
        {
          "internalType": "address",
          "name": "recipient",
          "type": "address"
        },
        {
          "internalType": "uint256",
          "name": "amount",
          "type": "uint256"
        }
      ],
      "name": "transferFrom",
      "outputs": [
        {
          "internalType": "bool",
          "name": "",
          "type": "bool"
        }
      ],
      "stateMutability": "nonpayable",
      "type": "function"
    },
    {
      "inputs": [
        {
          "internalType": "address",
          "name": "newOwner",
          "type": "address"
        }
      ],
      "name": "transferOwnership",
      "outputs": [],
      "stateMutability": "nonpayable",
      "type": "function"
    },
    {
      "inputs": [
        {
          "internalType": "address",
          "name": "recipient",
          "type": "address"
        },
        {
          "internalType": "uint256",
          "name": "amount",
          "type": "uint256"
        }
      ],
      "name": "transfer",
      "outputs": [
        {
          "internalType": "bool",
          "name": "",
          "type": "bool"
        }
      ],
      "stateMutability": "nonpayable",
      "type": "function"
    },
    {
      "inputs": [
        {
          "internalType": "uint8",
          "name": "_taxRate",
          "type": "uint8"
        }
      ],
      "name": "setTaxRate",
      "outputs": [],
      "stateMutability": "nonpayable",
      "type": "function"
    },
    {
      "inputs": [
        {
          "internalType": "address",
          "name": "_taxPoolAddress",
          "type": "address"
        }
      ],
      "name": "setTaxPoolAddress",
      "outputs": [],
      "stateMutability": "nonpayable",
      "type": "function"
    }
  ],
  "bytecode": "0x60806040523480156200001157600080fd5b506040516200135e3803806200135e83398101604081905262000034916200033a565b6040518060400160405280600a81526020017f447265616d546f6b656e000000000000000000000000000000000000000000008152506040518060400160405280600381526020017f44525400000000000000000000000000000000000000000000000000000000008152508160039080519060200190620000b892919062000294565b508051620000ce90600490602084019062000294565b5050506000620000ec62000172640100000000026401000000009004565b60058054600160a060020a031916600160a060020a038316908117909155604051919250906000907f8be0079c531659141344cd1fd0a4f28419497f9722a3daafe3b4186f6b6457e0908290a35060068054600160a060020a031916600160a060020a0383161790556200016a338364010000000062000176810204565b50506200040f565b3390565b600160a060020a038216620001eb576040517f08c379a000000000000000000000000000000000000000000000000000000000815260206004820152601f60248201527f45524332303a206d696e7420746f20746865207a65726f206164647265737300604482015260640160405180910390fd5b62000202600083836401000000006200028f810204565b806002600082825462000216919062000379565b9091555050600160a060020a038216600090815260208190526040812080548392906200024590849062000379565b9091555050604051818152600160a060020a038316906000907fddf252ad1be2c89b69c2b068fc378daa952ba7f163c4a11628f55a4df523b3ef9060200160405180910390a35050565b505050565b828054620002a290620003b9565b90600052602060002090601f016020900481019282620002c6576000855562000311565b82601f10620002e157805160ff191683800117855562000311565b8280016001018555821562000311579182015b8281111562000311578251825591602001919060010190620002f4565b506200031f92915062000323565b5090565b5b808211156200031f576000815560010162000324565b600080604083850312156200034e57600080fd5b82516020840151909250600160a060020a03811681146200036e57600080fd5b809150509250929050565b60008219821115620003b4577f4e487b7100000000000000000000000000000000000000000000000000000000600052601160045260246000fd5b500190565b600281046001821680620003ce57607f821691505b6020821081141562000409577f4e487b7100000000000000000000000000000000000000000000000000000000600052602260045260246000fd5b50919050565b610f3f806200041f6000396000f3fe608060405234801561001057600080fd5b506004361061013e576000357c010000000000000000000000000000000000000000000000000000000090048063715018a6116100ca578063a9059cbb1161008e578063a9059cbb1461028f578063d570ab34146102a2578063dd62ed3e146102b5578063f2fde38b146102ee578063f985b3cf1461030157600080fd5b8063715018a614610222578063771a3a1d1461022a5780638da5cb5b1461024f57806395d89b4114610274578063a457c2d71461027c57600080fd5b8063313ce56711610111578063313ce567146101a957806332af04ff146101be57806339509351146101d35780636c791e04146101e657806370a08231146101f957600080fd5b806306fdde0314610143578063095ea7b31461016157806318160ddd1461018457806323b872dd14610196575b600080fd5b61014b610314565b6040516101589190610d73565b60405180910390f35b61017461016f366004610d26565b6103a6565b6040519015158152602001610158565b6002545b604051908152602001610158565b6101746101a4366004610cea565b6103bc565b60125b60405160ff9091168152602001610158565b6101d16101cc366004610c9c565b61048a565b005b6101746101e1366004610d26565b6104e6565b6101d16101f4366004610d50565b61051d565b610188610207366004610c9c565b600160a060020a031660009081526020819052604090205490565b6101d16105e2565b6007546101ac9074010000000000000000000000000000000000000000900460ff1681565b600554600160a060020a03165b604051600160a060020a039091168152602001610158565b61014b610666565b61017461028a366004610d26565b610675565b61017461029d366004610d26565b61072b565b60065461025c90600160a060020a031681565b6101886102c3366004610cb7565b600160a060020a03918216600090815260016020908152604080832093909416825291909152205490565b6101d16102fc366004610c9c565b610760565b60075461025c90600160a060020a031681565b60606003805461032390610e86565b80601f016020809104026020016040519081016040528092919081815260200182805461034f90610e86565b801561039c5780601f106103715761010080835404028352916020019161039c565b820191906000526020600020905b81548152906001019060200180831161037f57829003601f168201915b5050505050905090565b60006103b3338484610875565b50600192915050565b60006103c98484846109d3565b600160a060020a03841660009081526001602090815260408083203384529091529020548281101561046b5760405160e560020a62461bcd02815260206004820152602860248201527f45524332303a207472616e7366657220616d6f756e742065786365656473206160448201527f6c6c6f77616e636500000000000000000000000000000000000000000000000060648201526084015b60405180910390fd5b61047f853361047a8685610e6f565b610875565b506001949350505050565b600554600160a060020a031633146104b75760405160e560020a62461bcd02815260040161046290610dc8565b6007805473ffffffffffffffffffffffffffffffffffffffff1916600160a060020a0392909216919091179055565b336000818152600160209081526040808320600160a060020a038716845290915281205490916103b391859061047a908690610dfd565b600654600160a060020a031633146105a05760405160e560020a62461bcd02815260206004820152602760248201527f4f6e6c7920676f7665726e6d656e742063616e2063616c6c207468697320667560448201527f6e6374696f6e2e000000000000000000000000000000000000000000000000006064820152608401610462565b6007805460ff909216740100000000000000000000000000000000000000000274ff000000000000000000000000000000000000000019909216919091179055565b600554600160a060020a0316331461060f5760405160e560020a62461bcd02815260040161046290610dc8565b600554604051600091600160a060020a0316907f8be0079c531659141344cd1fd0a4f28419497f9722a3daafe3b4186f6b6457e0908390a36005805473ffffffffffffffffffffffffffffffffffffffff19169055565b60606004805461032390610e86565b336000908152600160209081526040808320600160a060020a0386168452909152812054828110156107125760405160e560020a62461bcd02815260206004820152602560248201527f45524332303a2064656372656173656420616c6c6f77616e63652062656c6f7760448201527f207a65726f0000000000000000000000000000000000000000000000000000006064820152608401610462565b610721338561047a8685610e6f565b5060019392505050565b600080600061073984610bfd565b915091506107483386836109d3565b60075461047f903390600160a060020a0316846109d3565b600554600160a060020a0316331461078d5760405160e560020a62461bcd02815260040161046290610dc8565b600160a060020a03811661080c5760405160e560020a62461bcd02815260206004820152602660248201527f4f776e61626c653a206e6577206f776e657220697320746865207a65726f206160448201527f64647265737300000000000000000000000000000000000000000000000000006064820152608401610462565b600554604051600160a060020a038084169216907f8be0079c531659141344cd1fd0a4f28419497f9722a3daafe3b4186f6b6457e090600090a36005805473ffffffffffffffffffffffffffffffffffffffff1916600160a060020a0392909216919091179055565b600160a060020a0383166108f35760405160e560020a62461bcd028152602060048201526024808201527f45524332303a20617070726f76652066726f6d20746865207a65726f2061646460448201527f72657373000000000000000000000000000000000000000000000000000000006064820152608401610462565b600160a060020a0382166109725760405160e560020a62461bcd02815260206004820152602260248201527f45524332303a20617070726f766520746f20746865207a65726f20616464726560448201527f73730000000000000000000000000000000000000000000000000000000000006064820152608401610462565b600160a060020a0383811660008181526001602090815260408083209487168084529482529182902085905590518481527f8c5be1e5ebec7d5bd14f71427d1e84f3dd0314c0f7b2291e5b200ac8c7c3b925910160405180910390a3505050565b600160a060020a038316610a525760405160e560020a62461bcd02815260206004820152602560248201527f45524332303a207472616e736665722066726f6d20746865207a65726f20616460448201527f64726573730000000000000000000000000000000000000000000000000000006064820152608401610462565b600160a060020a038216610ad15760405160e560020a62461bcd02815260206004820152602360248201527f45524332303a207472616e7366657220746f20746865207a65726f206164647260448201527f65737300000000000000000000000000000000000000000000000000000000006064820152608401610462565b600160a060020a03831660009081526020819052604090205481811015610b635760405160e560020a62461bcd02815260206004820152602660248201527f45524332303a207472616e7366657220616d6f756e742065786365656473206260448201527f616c616e636500000000000000000000000000000000000000000000000000006064820152608401610462565b610b6d8282610e6f565b600160a060020a038086166000908152602081905260408082209390935590851681529081208054849290610ba3908490610dfd565b9250508190555082600160a060020a031684600160a060020a03167fddf252ad1be2c89b69c2b068fc378daa952ba7f163c4a11628f55a4df523b3ef84604051610bef91815260200190565b60405180910390a350505050565b60075460009081908190610c3b9061271090610c3590879074010000000000000000000000000000000000000000900460ff16610c55565b90610c68565b90506000610c498583610c74565b91959194509092505050565b6000610c618284610e50565b9392505050565b6000610c618284610e15565b6000610c618284610e6f565b8035600160a060020a0381168114610c9757600080fd5b919050565b600060208284031215610cae57600080fd5b610c6182610c80565b60008060408385031215610cca57600080fd5b610cd383610c80565b9150610ce160208401610c80565b90509250929050565b600080600060608486031215610cff57600080fd5b610d0884610c80565b9250610d1660208501610c80565b9150604084013590509250925092565b60008060408385031215610d3957600080fd5b610d4283610c80565b946020939093013593505050565b600060208284031215610d6257600080fd5b813560ff81168114610c6157600080fd5b600060208083528351808285015260005b81811015610da057858101830151858201604001528201610d84565b81811115610db2576000604083870101525b50601f01601f1916929092016040019392505050565b6020808252818101527f4f776e61626c653a2063616c6c6572206973206e6f7420746865206f776e6572604082015260600190565b60008219821115610e1057610e10610eda565b500190565b600082610e4b577f4e487b7100000000000000000000000000000000000000000000000000000000600052601260045260246000fd5b500490565b6000816000190483118215151615610e6a57610e6a610eda565b500290565b600082821015610e8157610e81610eda565b500390565b600281046001821680610e9a57607f821691505b60208210811415610ed4577f4e487b7100000000000000000000000000000000000000000000000000000000600052602260045260246000fd5b50919050565b7f4e487b7100000000000000000000000000000000000000000000000000000000600052601160045260246000fdfea264697066735822122004c896056e9a34693ddc9df1b206b49796c2764ee25089c02a87b29400ab392a64736f6c63430008050033",
  "immutableReferences": {},
  "source": "// SPDX-License-Identifier: MIT\r\npragma solidity 0.8.5;\r\n\r\nimport \"@openzeppelin/contracts/token/ERC20/ERC20.sol\";\r\nimport \"@openzeppelin/contracts/utils/math/SafeMath.sol\";\r\nimport \"@openzeppelin/contracts/access/Ownable.sol\";\r\n\r\n/// @title Dream token for Dream Government\r\n/// @author Lars Raschke\r\n/// @notice This ERC20 token is collecting fees on simple transfers related to voted government laws.\r\n/// The fees are send to the tax pool.\r\ncontract DreamToken is ERC20, Ownable {\r\n    using SafeMath for uint256;\r\n\r\n    address public governmentAddress; // government contract address\r\n    address public taxPoolAddress; // tax pool address\r\n    uint8 public taxRate; // current tax rate for transfers\r\n\r\n    // modifier to restrict functions access only for government\r\n    modifier onlyGovernment() {\r\n        require(\r\n            msg.sender == governmentAddress,\r\n            \"Only government can call this function.\"\r\n        );\r\n        _;\r\n    }\r\n\r\n    /// @notice Minting initial supply to senders address\r\n    /// @param initialSupply The number of initial supplied tokens\r\n    /// @param _govAddress The address of government contract\r\n    constructor(uint256 initialSupply, address _govAddress)\r\n        ERC20(\"DreamToken\", \"DRT\")\r\n    {\r\n        governmentAddress = _govAddress;\r\n        _mint(msg.sender, initialSupply);\r\n    }\r\n\r\n    /// @notice Transfering tokens from sender to receiver and collecting taxes\r\n    /// @param amount The total number of tokens to be transfered\r\n    /// @param recipient The address of the token receiver\r\n    /// @return bool for successful transfer\r\n    function transfer(address recipient, uint256 amount)\r\n        public\r\n        virtual\r\n        override\r\n        returns (bool)\r\n    {\r\n        (uint256 tax, uint256 _amount) = calculateSendingAmounts(amount);\r\n        _transfer(msg.sender, recipient, _amount);\r\n        _transfer(msg.sender, taxPoolAddress, tax);\r\n        return true;\r\n    }\r\n\r\n    /// @notice Calculating tax and remaining send amount for transfers\r\n    /// @param amount The total number of tokens to be transfered\r\n    /// @return tax amount and remaining sending amount\r\n    function calculateSendingAmounts(uint256 amount)\r\n        internal\r\n        view\r\n        returns (uint256, uint256)\r\n    {\r\n        uint256 tax = amount.mul(taxRate).div(10000);\r\n        uint256 amountAfterTax = amount.sub(tax);\r\n\r\n        return (tax, amountAfterTax);\r\n    }\r\n\r\n    /// @notice Setting the current tax fee by government.\r\n    /// @param _taxRate The tax rate applied to every transfer.\r\n    function setTaxRate(uint8 _taxRate) external onlyGovernment {\r\n        taxRate = _taxRate;\r\n    }\r\n\r\n    /// @notice Setting the tax pool address by government.\r\n    /// @param _taxPoolAddress The address of the tax pool.\r\n    function setTaxPoolAddress(address _taxPoolAddress) external onlyOwner {\r\n        taxPoolAddress = _taxPoolAddress;\r\n    }\r\n}\r\n",
  "sourcePath": "C:\\Users\\larsr\\Documents\\fh\\Bewerbung\\DreamGov\\contracts\\DreamToken.sol",
  "compiler": {
    "name": "solc",
    "version": "0.8.5+commit.a4f2e591.Emscripten.clang"
  },
  "schemaVersion": "3.3.4",
  "updatedAt": "2021-06-14T16:44:13.979Z",
  "devdoc": {
    "author": "Lars Raschke",
    "kind": "dev",
    "methods": {
      "allowance(address,address)": {
        "details": "See {IERC20-allowance}."
      },
      "approve(address,uint256)": {
        "details": "See {IERC20-approve}. Requirements: - `spender` cannot be the zero address."
      },
      "balanceOf(address)": {
        "details": "See {IERC20-balanceOf}."
      },
      "constructor": {
        "params": {
          "_govAddress": "The address of government contract",
          "initialSupply": "The number of initial supplied tokens"
        }
      },
      "decimals()": {
        "details": "Returns the number of decimals used to get its user representation. For example, if `decimals` equals `2`, a balance of `505` tokens should be displayed to a user as `5,05` (`505 / 10 ** 2`). Tokens usually opt for a value of 18, imitating the relationship between Ether and Wei. This is the value {ERC20} uses, unless this function is overridden; NOTE: This information is only used for _display_ purposes: it in no way affects any of the arithmetic of the contract, including {IERC20-balanceOf} and {IERC20-transfer}."
      },
      "decreaseAllowance(address,uint256)": {
        "details": "Atomically decreases the allowance granted to `spender` by the caller. This is an alternative to {approve} that can be used as a mitigation for problems described in {IERC20-approve}. Emits an {Approval} event indicating the updated allowance. Requirements: - `spender` cannot be the zero address. - `spender` must have allowance for the caller of at least `subtractedValue`."
      },
      "increaseAllowance(address,uint256)": {
        "details": "Atomically increases the allowance granted to `spender` by the caller. This is an alternative to {approve} that can be used as a mitigation for problems described in {IERC20-approve}. Emits an {Approval} event indicating the updated allowance. Requirements: - `spender` cannot be the zero address."
      },
      "name()": {
        "details": "Returns the name of the token."
      },
      "owner()": {
        "details": "Returns the address of the current owner."
      },
      "renounceOwnership()": {
        "details": "Leaves the contract without owner. It will not be possible to call `onlyOwner` functions anymore. Can only be called by the current owner. NOTE: Renouncing ownership will leave the contract without an owner, thereby removing any functionality that is only available to the owner."
      },
      "setTaxPoolAddress(address)": {
        "params": {
          "_taxPoolAddress": "The address of the tax pool."
        }
      },
      "setTaxRate(uint8)": {
        "params": {
          "_taxRate": "The tax rate applied to every transfer."
        }
      },
      "symbol()": {
        "details": "Returns the symbol of the token, usually a shorter version of the name."
      },
      "totalSupply()": {
        "details": "See {IERC20-totalSupply}."
      },
      "transfer(address,uint256)": {
        "params": {
          "amount": "The total number of tokens to be transfered",
          "recipient": "The address of the token receiver"
        },
        "returns": {
          "_0": "bool for successful transfer"
        }
      },
      "transferFrom(address,address,uint256)": {
        "details": "See {IERC20-transferFrom}. Emits an {Approval} event indicating the updated allowance. This is not required by the EIP. See the note at the beginning of {ERC20}. Requirements: - `sender` and `recipient` cannot be the zero address. - `sender` must have a balance of at least `amount`. - the caller must have allowance for ``sender``'s tokens of at least `amount`."
      },
      "transferOwnership(address)": {
        "details": "Transfers ownership of the contract to a new account (`newOwner`). Can only be called by the current owner."
      }
    },
    "title": "Dream token for Dream Government",
    "version": 1
  },
  "userdoc": {
    "kind": "user",
    "methods": {
      "constructor": {
        "notice": "Minting initial supply to senders address"
      },
      "setTaxPoolAddress(address)": {
        "notice": "Setting the tax pool address by government."
      },
      "setTaxRate(uint8)": {
        "notice": "Setting the current tax fee by government."
      },
      "transfer(address,uint256)": {
        "notice": "Transfering tokens from sender to receiver and collecting taxes"
      }
    },
    "notice": "This ERC20 token is collecting fees on simple transfers related to voted government laws. The fees are send to the tax pool.",
    "version": 1
  }
}