{
  "contractName": "DreamGovernment",
  "abi": [
    {
      "inputs": [],
      "stateMutability": "nonpayable",
      "type": "constructor"
    },
    {
      "anonymous": false,
      "inputs": [
        {
          "indexed": true,
          "internalType": "address",
          "name": "previousOwner",
          "type": "address"
        },
        {
          "indexed": true,
          "internalType": "address",
          "name": "newOwner",
          "type": "address"
        }
      ],
      "name": "OwnershipTransferred",
      "type": "event"
    },
    {
      "anonymous": false,
      "inputs": [
        {
          "indexed": true,
          "internalType": "address",
          "name": "staker",
          "type": "address"
        },
        {
          "indexed": false,
          "internalType": "uint256",
          "name": "amount",
          "type": "uint256"
        }
      ],
      "name": "Staked",
      "type": "event"
    },
    {
      "anonymous": false,
      "inputs": [
        {
          "indexed": true,
          "internalType": "address",
          "name": "staker",
          "type": "address"
        },
        {
          "indexed": false,
          "internalType": "uint256",
          "name": "amount",
          "type": "uint256"
        }
      ],
      "name": "Unstaked",
      "type": "event"
    },
    {
      "anonymous": false,
      "inputs": [
        {
          "indexed": true,
          "internalType": "address",
          "name": "voter",
          "type": "address"
        },
        {
          "indexed": false,
          "internalType": "uint256",
          "name": "votes",
          "type": "uint256"
        }
      ],
      "name": "Voted",
      "type": "event"
    },
    {
      "inputs": [],
      "name": "cycleStartTime",
      "outputs": [
        {
          "internalType": "uint256",
          "name": "",
          "type": "uint256"
        }
      ],
      "stateMutability": "view",
      "type": "function"
    },
    {
      "inputs": [],
      "name": "dreamToken",
      "outputs": [
        {
          "internalType": "contract DreamToken",
          "name": "",
          "type": "address"
        }
      ],
      "stateMutability": "view",
      "type": "function"
    },
    {
      "inputs": [],
      "name": "electionPeriod",
      "outputs": [
        {
          "internalType": "uint256",
          "name": "",
          "type": "uint256"
        }
      ],
      "stateMutability": "view",
      "type": "function"
    },
    {
      "inputs": [],
      "name": "governmentTenure",
      "outputs": [
        {
          "internalType": "uint256",
          "name": "",
          "type": "uint256"
        }
      ],
      "stateMutability": "view",
      "type": "function"
    },
    {
      "inputs": [
        {
          "internalType": "uint8",
          "name": "",
          "type": "uint8"
        }
      ],
      "name": "lotteryRateVotes",
      "outputs": [
        {
          "internalType": "uint256",
          "name": "",
          "type": "uint256"
        }
      ],
      "stateMutability": "view",
      "type": "function"
    },
    {
      "inputs": [
        {
          "internalType": "uint8",
          "name": "",
          "type": "uint8"
        }
      ],
      "name": "lotteryRates",
      "outputs": [
        {
          "internalType": "uint8",
          "name": "",
          "type": "uint8"
        }
      ],
      "stateMutability": "view",
      "type": "function"
    },
    {
      "inputs": [],
      "name": "lotteryType",
      "outputs": [
        {
          "internalType": "uint8",
          "name": "",
          "type": "uint8"
        }
      ],
      "stateMutability": "view",
      "type": "function"
    },
    {
      "inputs": [],
      "name": "owner",
      "outputs": [
        {
          "internalType": "address",
          "name": "",
          "type": "address"
        }
      ],
      "stateMutability": "view",
      "type": "function"
    },
    {
      "inputs": [],
      "name": "renounceOwnership",
      "outputs": [],
      "stateMutability": "nonpayable",
      "type": "function"
    },
    {
      "inputs": [],
      "name": "stakingPeriod",
      "outputs": [
        {
          "internalType": "uint256",
          "name": "",
          "type": "uint256"
        }
      ],
      "stateMutability": "view",
      "type": "function"
    },
    {
      "inputs": [],
      "name": "taxPool",
      "outputs": [
        {
          "internalType": "contract TaxPool",
          "name": "",
          "type": "address"
        }
      ],
      "stateMutability": "view",
      "type": "function"
    },
    {
      "inputs": [],
      "name": "taxRateType",
      "outputs": [
        {
          "internalType": "uint8",
          "name": "",
          "type": "uint8"
        }
      ],
      "stateMutability": "view",
      "type": "function"
    },
    {
      "inputs": [
        {
          "internalType": "uint8",
          "name": "",
          "type": "uint8"
        }
      ],
      "name": "taxRateVotes",
      "outputs": [
        {
          "internalType": "uint256",
          "name": "",
          "type": "uint256"
        }
      ],
      "stateMutability": "view",
      "type": "function"
    },
    {
      "inputs": [
        {
          "internalType": "uint8",
          "name": "",
          "type": "uint8"
        }
      ],
      "name": "taxRates",
      "outputs": [
        {
          "internalType": "uint8",
          "name": "",
          "type": "uint8"
        }
      ],
      "stateMutability": "view",
      "type": "function"
    },
    {
      "inputs": [],
      "name": "totalStakedAmount",
      "outputs": [
        {
          "internalType": "uint256",
          "name": "",
          "type": "uint256"
        }
      ],
      "stateMutability": "view",
      "type": "function"
    },
    {
      "inputs": [
        {
          "internalType": "address",
          "name": "newOwner",
          "type": "address"
        }
      ],
      "name": "transferOwnership",
      "outputs": [],
      "stateMutability": "nonpayable",
      "type": "function"
    },
    {
      "inputs": [
        {
          "internalType": "address",
          "name": "",
          "type": "address"
        }
      ],
      "name": "usersVotes",
      "outputs": [
        {
          "internalType": "uint256",
          "name": "lastVoted",
          "type": "uint256"
        },
        {
          "internalType": "uint256",
          "name": "numberOfVotes",
          "type": "uint256"
        }
      ],
      "stateMutability": "view",
      "type": "function"
    },
    {
      "inputs": [
        {
          "internalType": "uint256",
          "name": "amount",
          "type": "uint256"
        }
      ],
      "name": "stake",
      "outputs": [],
      "stateMutability": "nonpayable",
      "type": "function"
    },
    {
      "inputs": [
        {
          "internalType": "uint256",
          "name": "amount",
          "type": "uint256"
        }
      ],
      "name": "unstake",
      "outputs": [],
      "stateMutability": "nonpayable",
      "type": "function"
    },
    {
      "inputs": [
        {
          "internalType": "uint8",
          "name": "_taxRateType",
          "type": "uint8"
        },
        {
          "internalType": "uint8",
          "name": "_lotteryRateType",
          "type": "uint8"
        },
        {
          "internalType": "uint8",
          "name": "_votes",
          "type": "uint8"
        }
      ],
      "name": "voteForGovernment",
      "outputs": [],
      "stateMutability": "nonpayable",
      "type": "function"
    },
    {
      "inputs": [],
      "name": "finishElection",
      "outputs": [],
      "stateMutability": "nonpayable",
      "type": "function"
    },
    {
      "inputs": [
        {
          "internalType": "address",
          "name": "tokenAddress",
          "type": "address"
        }
      ],
      "name": "setDreamToken",
      "outputs": [],
      "stateMutability": "nonpayable",
      "type": "function"
    },
    {
      "inputs": [
        {
          "internalType": "address",
          "name": "_taxPoolAddress",
          "type": "address"
        }
      ],
      "name": "setTaxPoolAddress",
      "outputs": [],
      "stateMutability": "nonpayable",
      "type": "function"
    },
    {
      "inputs": [],
      "name": "getLotteryRate",
      "outputs": [
        {
          "internalType": "uint8",
          "name": "",
          "type": "uint8"
        }
      ],
      "stateMutability": "view",
      "type": "function"
    },
    {
      "inputs": [],
      "name": "getLotteryAddress",
      "outputs": [
        {
          "internalType": "address",
          "name": "",
          "type": "address"
        }
      ],
      "stateMutability": "pure",
      "type": "function"
    }
  ],
  "bytecode": "0x6080604052610e10600b556104b0600c55610708600d5534801561002257600080fd5b5060006100366401000000006101a1810204565b60008054600160a060020a031916600160a060020a0383169081178255604051929350917f8be0079c531659141344cd1fd0a4f28419497f9722a3daafe3b4186f6b6457e0908290a3507f3617319a054d772f909f7c479a2cebe5066e836a939412e32403c99029b92eff805460ff19908116600a9081179092557fa15bc60c955c405d20d9149c709e2460f1c2d9a497496a7f46004d1772c3054c8054821660141790557fc3a24b0501bd2c13a7e57f2db4369ec4c223447539fc0724a9d55ac4a06ebd4d80548216601e17905560046020527f17ef568e3e12ab5b9c7254a8d58478811de00f9e6eb34345acd53bf8fd09d3ec8054821660191790557fabd6e7cb50984ff9c2f3e18a2660c3353dadf4e3291deeb275dae2cd1e44fe0580548216603217905560026000527f91da3fd0782e51c6b3986e9e672fd566868e71f3dbc2d6c2cd6fbb3e361af2a78054909116604b1790554290556005805461ffff191690556101a5565b3390565b6112ba806101b46000396000f3fe608060405234801561001057600080fd5b5060043610610190576000357c01000000000000000000000000000000000000000000000000000000009004806390173864116100fb578063b4e5ae9d116100b4578063c4188c2d1161008e578063c4188c2d1461038e578063c9f3e039146103a1578063f2fde38b146103aa578063fc7d9178146103bd57600080fd5b8063b4e5ae9d1461035a578063b627a41414610363578063c03d5b471461038557600080fd5b806390173864146102d65780639c658f58146102de5780639d1768ec14610301578063a24e655b14610314578063a694fc3a14610334578063b12cbc761461034757600080fd5b8063567e98f91161014d578063567e98f91461025f5780635e72c3f21461026857806365d524a11461028b578063715018a61461029d57806385ddfb1e146102a55780638da5cb5b146102c557600080fd5b806327ffbefc146101955780632e17de78146101b957806332af04ff146101ce578063335e536c146101e157806341c1f5b4146101f85780634e69f79d14610223575b600080fd5b6005546101a29060ff1681565b60405160ff90911681526020015b60405180910390f35b6101cc6101c736600461117a565b6103c4565b005b6101cc6101dc36600461112f565b61065f565b6101ea600a5481565b6040519081526020016101b0565b60015461020b90600160a060020a031681565b604051600160a060020a0390911681526020016101b0565b61024a61023136600461112f565b6007602052600090815260409020805460019091015482565b604080519283526020830191909152016101b0565b6101ea60065481565b6101a2610276366004611193565b60046020526000908152604090205460ff1681565b6005546101a290610100900460ff1681565b6101cc6106bb565b6101ea6102b3366004611193565b60096020526000908152604090205481565b600054600160a060020a031661020b565b6101cc61073f565b6101a26102ec366004611193565b60036020526000908152604090205460ff1681565b6101cc61030f3660046111ae565b610a5e565b6101ea610322366004611193565b60086020526000908152604090205481565b6101cc61034236600461117a565b610d85565b60025461020b90600160a060020a031681565b6101ea600b5481565b600554610100900460ff908116600090815260046020526040902054166101a2565b6101ea600c5481565b6101cc61039c36600461112f565b610f8a565b6101ea600d5481565b6101cc6103b836600461112f565b610fe6565b600061020b565b6000811161041c5760405160e560020a62461bcd02815260206004820152601060248201527f43616e6e6f7420756e7374616b6520300000000000000000000000000000000060448201526064015b60405180910390fd5b336000908152600760205260409020600101548110156104a75760405160e560020a62461bcd02815260206004820152602c60248201527f43616e6e6f7420756e7374616b65206d6f7265207468656e20796f757220637560448201527f7272656e74207374616b652e00000000000000000000000000000000000000006064820152608401610413565b600a54421180156104c55750600c54600a546104c2916110fa565b42105b61053a5760405160e560020a62461bcd02815260206004820152602560248201527f556e7374616b696e67206f6e6c7920647572696e67207374616b696e6720706560448201527f72696f642e0000000000000000000000000000000000000000000000000000006064820152608401610413565b6001546040517f23b872dd00000000000000000000000000000000000000000000000000000000815230600482015233602482015260448101839052600160a060020a03909116906323b872dd90606401602060405180830381600087803b1580156105a557600080fd5b505af11580156105b9573d6000803e3d6000fd5b505050506040513d601f19601f820116820180604052508101906105dd9190611158565b6105e657600080fd5b33600090815260076020526040902060010154610603908261110d565b33600090815260076020526040902060010155600654610623908261110d565b60065560405181815233907f0f5bb82176feb1b5e747e28471aa92156a04d9f3ab9f45f28e2d704232b93f75906020015b60405180910390a250565b600054600160a060020a0316331461068c5760405160e560020a62461bcd028152600401610413906111f1565b6002805473ffffffffffffffffffffffffffffffffffffffff1916600160a060020a0392909216919091179055565b600054600160a060020a031633146106e85760405160e560020a62461bcd028152600401610413906111f1565b60008054604051600160a060020a03909116907f8be0079c531659141344cd1fd0a4f28419497f9722a3daafe3b4186f6b6457e0908390a36000805473ffffffffffffffffffffffffffffffffffffffff19169055565b600b54600a5461074e916110fa565b421161075957600080fd5b60086020527fad67d757c34507f157cacfa2e3153e9f260a2244f30428821be7be64587ac55f54600080527f5eff886ea0ce6ca488a3d6e336d6c0f75f46d19b42c06ce5ee98e42c96d256c7541180156107fd575060086020527f6add646517a5b0f6793cd5891b7937d28a5b2981a5d88ebc7cd776088fea904154600080527f5eff886ea0ce6ca488a3d6e336d6c0f75f46d19b42c06ce5ee98e42c96d256c754115b15610811576005805460ff19169055610885565b60086020527f6add646517a5b0f6793cd5891b7937d28a5b2981a5d88ebc7cd776088fea90415460016000527fad67d757c34507f157cacfa2e3153e9f260a2244f30428821be7be64587ac55f541115610877576005805460ff19166001179055610885565b6005805460ff191660021790555b60046020527fabd6e7cb50984ff9c2f3e18a2660c3353dadf4e3291deeb275dae2cd1e44fe0554600080527f17ef568e3e12ab5b9c7254a8d58478811de00f9e6eb34345acd53bf8fd09d3ec5460ff9182169116118015610937575060046020527f91da3fd0782e51c6b3986e9e672fd566868e71f3dbc2d6c2cd6fbb3e361af2a754600080527f17ef568e3e12ab5b9c7254a8d58478811de00f9e6eb34345acd53bf8fd09d3ec5460ff9182169116115b1561094c576005805461ff00191690556109c9565b60046020527f91da3fd0782e51c6b3986e9e672fd566868e71f3dbc2d6c2cd6fbb3e361af2a75460016000527fabd6e7cb50984ff9c2f3e18a2660c3353dadf4e3291deeb275dae2cd1e44fe055460ff918216911611156109b9576005805460ff191660011790556109c9565b6005805461ff0019166102001790555b60015460055460ff908116600090815260036020526040908190205490517f6c791e0400000000000000000000000000000000000000000000000000000000815291166004820152600160a060020a0390911690636c791e0490602401600060405180830381600087803b158015610a4057600080fd5b505af1158015610a54573d6000803e3d6000fd5b505042600a555050565b42610a82600d54610a7c600b54600a546110fa90919063ffffffff16565b9061110d565b11610af75760405160e560020a62461bcd028152602060048201526024808201527f456c656374696f6e20706572696f6420686173206e6f7420737461727465642060448201527f7965742e000000000000000000000000000000000000000000000000000000006064820152608401610413565b33600090815260076020526040902054600a5411610b5a5760405160e560020a62461bcd02815260206004820152601d60248201527f596f7520616c726561647920766f7465642074686973206379636c652e0000006044820152606401610413565b60038360ff1610610bd65760405160e560020a62461bcd02815260206004820152602b60248201527f53656c656374656420746178207261746520747970652068617320746f20626560448201527f20302c2031206f7220322e0000000000000000000000000000000000000000006064820152608401610413565b60038260ff1610610c525760405160e560020a62461bcd02815260206004820152602f60248201527f53656c6563746564206c6f74746572792072617465207479706520686173207460448201527f6f20626520302c2031206f7220322e00000000000000000000000000000000006064820152608401610413565b3360009081526007602052604090206001015460ff82161015610ce05760405160e560020a62461bcd02815260206004820152602760248201527f596f7520646f206e6f74206861766520656e6f75676820617661696c61626c6560448201527f20766f7465732e000000000000000000000000000000000000000000000000006064820152608401610413565b60ff838116600090815260086020526040902054610cff9183166110fa565b60ff8085166000908152600860209081526040808320949094558583168252600990529190912054610d329183166110fa565b60ff8381166000908152600960209081526040918290209390935551908316815233917f4d99b957a2bc29a30ebd96a7be8e68fe50a3c701db28a91436490b7d53870ca4910160405180910390a2505050565b60008111610dd85760405160e560020a62461bcd02815260206004820152600e60248201527f43616e6e6f74207374616b6520300000000000000000000000000000000000006044820152606401610413565b600a5442118015610df75750600c54600a54610df49190611226565b42105b610e6c5760405160e560020a62461bcd02815260206004820152602360248201527f5374616b696e67206f6e6c7920647572696e67207374616b696e67207065726960448201527f6f642e00000000000000000000000000000000000000000000000000000000006064820152608401610413565b6001546040517f23b872dd00000000000000000000000000000000000000000000000000000000815233600482015230602482015260448101839052600160a060020a03909116906323b872dd90606401602060405180830381600087803b158015610ed757600080fd5b505af1158015610eeb573d6000803e3d6000fd5b505050506040513d601f19601f82011682018060405250810190610f0f9190611158565b610f1857600080fd5b33600090815260076020526040902060010154610f3590826110fa565b33600090815260076020526040902060010155600654610f5590826110fa565b60065560405181815233907f9e71bc8eea02a63969f509818f2dafb9254532904319f9dbda79b67bd34a5f3d90602001610654565b600054600160a060020a03163314610fb75760405160e560020a62461bcd028152600401610413906111f1565b6001805473ffffffffffffffffffffffffffffffffffffffff1916600160a060020a0392909216919091179055565b600054600160a060020a031633146110135760405160e560020a62461bcd028152600401610413906111f1565b600160a060020a0381166110925760405160e560020a62461bcd02815260206004820152602660248201527f4f776e61626c653a206e6577206f776e657220697320746865207a65726f206160448201527f64647265737300000000000000000000000000000000000000000000000000006064820152608401610413565b60008054604051600160a060020a03808516939216917f8be0079c531659141344cd1fd0a4f28419497f9722a3daafe3b4186f6b6457e091a36000805473ffffffffffffffffffffffffffffffffffffffff1916600160a060020a0392909216919091179055565b60006111068284611226565b9392505050565b6000611106828461123e565b803560ff8116811461112a57600080fd5b919050565b60006020828403121561114157600080fd5b8135600160a060020a038116811461110657600080fd5b60006020828403121561116a57600080fd5b8151801515811461110657600080fd5b60006020828403121561118c57600080fd5b5035919050565b6000602082840312156111a557600080fd5b61110682611119565b6000806000606084860312156111c357600080fd5b6111cc84611119565b92506111da60208501611119565b91506111e860408501611119565b90509250925092565b6020808252818101527f4f776e61626c653a2063616c6c6572206973206e6f7420746865206f776e6572604082015260600190565b6000821982111561123957611239611255565b500190565b60008282101561125057611250611255565b500390565b7f4e487b7100000000000000000000000000000000000000000000000000000000600052601160045260246000fdfea26469706673582212209b7c7536a6bdf224e6f674423b999a4dc835bf3c3d7856a91e47e9e15b639b2f64736f6c63430008050033",
  "immutableReferences": {},
  "source": "// SPDX-License-Identifier: MIT\r\npragma solidity 0.8.5;\r\n\r\nimport \"@openzeppelin/contracts/utils/math/SafeMath.sol\";\r\nimport \"@openzeppelin/contracts/access/Ownable.sol\";\r\nimport \"./DreamToken.sol\";\r\nimport \"./TaxPool.sol\";\r\n\r\n/// @title Dream government\r\n/// @author Lars Raschke\r\n/// @notice This government contract allows users to vote on three different options for collecting taxes in \r\n/// the dream system on transfering dream tokens - 10%, 20%, or 30% tax on all simple transfers. \r\n/// In addition the stakers have the option to choose the proportion of the collected taxes in each government\r\n/// cycle, which is send to a lottery contract. The lottery contract should have an external random oracle\r\n/// which is generating a random number. The stakers can participate on the lottery in proportion to their stake.\r\n/// The lottery contract is not implemented yet.\r\ncontract DreamGovernment is Ownable {\r\n    using SafeMath for uint256;\r\n\r\n    // used ERC20 token\r\n    DreamToken public dreamToken;\r\n    \r\n    // reference to tax pool contract\r\n    TaxPool public taxPool;\r\n\r\n    // votable government types and laws\r\n    mapping(uint8 => uint8) public taxRates;\r\n    mapping(uint8 => uint8) public lotteryRates;\r\n\r\n    // current set type and laws. holds index for mappings above\r\n    uint8 public taxRateType;\r\n    uint8 public lotteryType;\r\n\r\n    // balances of staked tokens by users\r\n    uint256 public totalStakedAmount;\r\n    \r\n    // struct for tracking users available votes\r\n    struct votes {\r\n        uint256 lastVoted;\r\n        uint256 numberOfVotes;\r\n    }\r\n    mapping(address => votes) public usersVotes;\r\n    \r\n    // votes for the two categories\r\n    mapping(uint8 => uint256) public taxRateVotes;\r\n    mapping(uint8 => uint256) public lotteryRateVotes;\r\n\r\n    // time periods for one cycle\r\n    uint256 public cycleStartTime;\r\n    uint256 public governmentTenure = 1 hours; //period voted laws lasting\r\n    uint256 public stakingPeriod = 20 minutes; //staking period on the beginning of each cycle\r\n    uint256 public electionPeriod = 30 minutes; //election period on the end of each cycle\r\n\r\n    // defining events\r\n    event Staked(address indexed staker, uint256 amount);\r\n    event Unstaked(address indexed staker, uint256 amount);\r\n    event Voted(address indexed voter, uint256 votes);\r\n\r\n\r\n    /// @notice Setting initial voting options for the dream system\r\n    constructor() {\r\n        // defining tax rate types for DreamToken transfers\r\n        taxRates[0] = 10; //10% tax rate on every transfer\r\n        taxRates[1] = 20; //20% tax rate on every transfer\r\n        taxRates[2] = 30; //30% tax rate on every transfer\r\n\r\n        // defining rate types for lottery pool in the cycle\r\n        lotteryRates[0] = 25; //25% of the collected taxes going to the lottery pool\r\n        lotteryRates[1] = 50; //50% of the collected taxes going to the lottery pool\r\n        lotteryRates[2] = 75; //75% of the collected taxes going to the lottery pool\r\n\r\n        // setting default variables\r\n        cycleStartTime = block.timestamp;\r\n        taxRateType = 0;\r\n        lotteryType = 0;\r\n    }\r\n\r\n    /// @notice By staking dream tokens the stakers are gaining votes\r\n    /// @param amount The amount a user wants to stake\r\n    function stake(uint256 amount) external {\r\n        require(amount > 0, \"Cannot stake 0\");\r\n        require(\r\n            block.timestamp > cycleStartTime &&\r\n                block.timestamp < cycleStartTime + stakingPeriod,\r\n            \"Staking only during staking period.\"\r\n        );\r\n\r\n        // transfering staked tokens from user to contract\r\n        require(dreamToken.transferFrom(msg.sender, address(this), amount));\r\n\r\n        // adding staking amount for voting \r\n        usersVotes[msg.sender].numberOfVotes = usersVotes[msg.sender].numberOfVotes.add(amount);\r\n        totalStakedAmount = totalStakedAmount.add(amount);\r\n\r\n        emit Staked(msg.sender, amount);\r\n    }\r\n\r\n    /// @notice By unstaking dream tokens the stakers are loosing votes\r\n    /// @param amount The amount a user wants to unstake\r\n    function unstake(uint256 amount) external {\r\n        require(amount > 0, \"Cannot unstake 0\");\r\n        require(\r\n            amount >= usersVotes[msg.sender].numberOfVotes,\r\n            \"Cannot unstake more then your current stake.\"\r\n        );\r\n        require(\r\n            block.timestamp > cycleStartTime &&\r\n                block.timestamp < cycleStartTime.add(stakingPeriod),\r\n            \"Unstaking only during staking period.\"\r\n        );\r\n\r\n        // transfering staked tokens from contract to user\r\n        require(dreamToken.transferFrom(address(this), msg.sender, amount));\r\n        \r\n        // decreasing available votes for user\r\n        usersVotes[msg.sender].numberOfVotes = usersVotes[msg.sender].numberOfVotes.sub(amount);\r\n        totalStakedAmount = totalStakedAmount.sub(amount);\r\n\r\n        emit Unstaked(msg.sender, amount);\r\n    }\r\n\r\n    /// @notice The stakers can vote for each option type of the system\r\n    /// @param _taxRateType The option type for tax rates (0 for 10%, 1 for 20%, 2 for 30%)\r\n    /// @param _lotteryRateType The option type for lottery propertion of tax pool (0 for 25%, 1 for 50%, 2 for 75%)\r\n    function voteForGovernment(uint8 _taxRateType, uint8 _lotteryRateType, uint8 _votes) external{\r\n        require(cycleStartTime.add(governmentTenure).sub(electionPeriod) > block.timestamp, \"Election period has not started yet.\");\r\n        require(cycleStartTime > usersVotes[msg.sender].lastVoted, \"You already voted this cycle.\");\r\n        require(_taxRateType < 3, \"Selected tax rate type has to be 0, 1 or 2.\");\r\n        require(_lotteryRateType < 3, \"Selected lottery rate type has to be 0, 1 or 2.\");\r\n        require(_votes >= usersVotes[msg.sender].numberOfVotes, \"You do not have enough available votes.\");\r\n        \r\n        // increase the voted laws with users votes\r\n        taxRateVotes[_taxRateType] = taxRateVotes[_taxRateType].add(_votes);\r\n        lotteryRateVotes[_lotteryRateType] = lotteryRateVotes[_lotteryRateType].add(_votes);\r\n        \r\n        emit Voted(msg.sender, _votes);\r\n    }\r\n\r\n    /// @notice Finishing the election by setting the laws to the option with the most votes.\r\n    /// resetting the start time restarts a new cycle with the voted laws.\r\n    function finishElection() external {\r\n        require(block.timestamp > cycleStartTime.add(governmentTenure) );\r\n        \r\n        // set voted tax laws\r\n        if (taxRateVotes[0] > taxRateVotes[1] && taxRateVotes[0] > taxRateVotes[2]){\r\n            taxRateType = 0;\r\n        }else if (taxRateVotes[1] > taxRateVotes[2]){\r\n            taxRateType = 1;\r\n        }else{\r\n            taxRateType = 2;\r\n        }\r\n        \r\n        // set voted lottery laws\r\n        if (lotteryRates[0] > lotteryRates[1] && lotteryRates[0] > lotteryRates[2]){\r\n            lotteryType = 0;\r\n        }else if (lotteryRates[1] > lotteryRates[2]){\r\n            taxRateType = 1;\r\n        }else{\r\n            lotteryType = 2;\r\n        }\r\n        \r\n        // set new tax rate for transfers\r\n        dreamToken.setTaxRate(taxRates[taxRateType]);\r\n        \r\n        // start new cycle\r\n        cycleStartTime = block.timestamp;\r\n    }\r\n\r\n    /// @notice setting the reference to the dream token\r\n    /// @param tokenAddress The address of the dream token\r\n    function setDreamToken(address tokenAddress) external onlyOwner {\r\n        dreamToken = DreamToken(tokenAddress);\r\n    }\r\n    \r\n    /// @notice Setting the tax pool address by government.\r\n    /// @param _taxPoolAddress The address of the tax pool.\r\n    function setTaxPoolAddress(address _taxPoolAddress) external onlyOwner {\r\n        taxPool = TaxPool(_taxPoolAddress);\r\n    }\r\n    \r\n    /// @notice Getting current lottery rate for sending correct amount from tax pool to lottery.\r\n    function getLotteryRate() external view returns(uint8){\r\n        return lotteryRates[lotteryType];\r\n    }\r\n    \r\n    /// @return address of lottery contract (not implemented yet)\r\n    function getLotteryAddress() external pure returns(address){\r\n        return address(0);\r\n    }\r\n}\r\n",
  "sourcePath": "C:\\Users\\larsr\\Documents\\fh\\Bewerbung\\DreamGov\\contracts\\DreamGovernment.sol",
  "compiler": {
    "name": "solc",
    "version": "0.8.5+commit.a4f2e591.Emscripten.clang"
  },
  "schemaVersion": "3.3.4",
  "updatedAt": "2021-06-14T16:44:13.964Z",
  "devdoc": {
    "author": "Lars Raschke",
    "kind": "dev",
    "methods": {
      "getLotteryAddress()": {
        "returns": {
          "_0": "address of lottery contract (not implemented yet)"
        }
      },
      "owner()": {
        "details": "Returns the address of the current owner."
      },
      "renounceOwnership()": {
        "details": "Leaves the contract without owner. It will not be possible to call `onlyOwner` functions anymore. Can only be called by the current owner. NOTE: Renouncing ownership will leave the contract without an owner, thereby removing any functionality that is only available to the owner."
      },
      "setDreamToken(address)": {
        "params": {
          "tokenAddress": "The address of the dream token"
        }
      },
      "setTaxPoolAddress(address)": {
        "params": {
          "_taxPoolAddress": "The address of the tax pool."
        }
      },
      "stake(uint256)": {
        "params": {
          "amount": "The amount a user wants to stake"
        }
      },
      "transferOwnership(address)": {
        "details": "Transfers ownership of the contract to a new account (`newOwner`). Can only be called by the current owner."
      },
      "unstake(uint256)": {
        "params": {
          "amount": "The amount a user wants to unstake"
        }
      },
      "voteForGovernment(uint8,uint8,uint8)": {
        "params": {
          "_lotteryRateType": "The option type for lottery propertion of tax pool (0 for 25%, 1 for 50%, 2 for 75%)",
          "_taxRateType": "The option type for tax rates (0 for 10%, 1 for 20%, 2 for 30%)"
        }
      }
    },
    "title": "Dream government",
    "version": 1
  },
  "userdoc": {
    "kind": "user",
    "methods": {
      "constructor": {
        "notice": "Setting initial voting options for the dream system"
      },
      "finishElection()": {
        "notice": "Finishing the election by setting the laws to the option with the most votes. resetting the start time restarts a new cycle with the voted laws."
      },
      "getLotteryRate()": {
        "notice": "Getting current lottery rate for sending correct amount from tax pool to lottery."
      },
      "setDreamToken(address)": {
        "notice": "setting the reference to the dream token"
      },
      "setTaxPoolAddress(address)": {
        "notice": "Setting the tax pool address by government."
      },
      "stake(uint256)": {
        "notice": "By staking dream tokens the stakers are gaining votes"
      },
      "unstake(uint256)": {
        "notice": "By unstaking dream tokens the stakers are loosing votes"
      },
      "voteForGovernment(uint8,uint8,uint8)": {
        "notice": "The stakers can vote for each option type of the system"
      }
    },
    "notice": "This government contract allows users to vote on three different options for collecting taxes in  the dream system on transfering dream tokens - 10%, 20%, or 30% tax on all simple transfers.  In addition the stakers have the option to choose the proportion of the collected taxes in each government cycle, which is send to a lottery contract. The lottery contract should have an external random oracle which is generating a random number. The stakers can participate on the lottery in proportion to their stake. The lottery contract is not implemented yet.",
    "version": 1
  }
}