{
  "contractName": "TaxPool",
  "abi": [
    {
      "inputs": [
        {
          "internalType": "address",
          "name": "_govAddress",
          "type": "address"
        },
        {
          "internalType": "address",
          "name": "_tokenAddress",
          "type": "address"
        }
      ],
      "stateMutability": "nonpayable",
      "type": "constructor"
    },
    {
      "inputs": [],
      "name": "dreamToken",
      "outputs": [
        {
          "internalType": "contract IERC20",
          "name": "",
          "type": "address"
        }
      ],
      "stateMutability": "view",
      "type": "function"
    },
    {
      "inputs": [],
      "name": "government",
      "outputs": [
        {
          "internalType": "contract DreamGovernment",
          "name": "",
          "type": "address"
        }
      ],
      "stateMutability": "view",
      "type": "function"
    },
    {
      "inputs": [],
      "name": "collectTaxesForLottery",
      "outputs": [],
      "stateMutability": "nonpayable",
      "type": "function"
    },
    {
      "inputs": [],
      "name": "getTotalTaxes",
      "outputs": [
        {
          "internalType": "uint256",
          "name": "",
          "type": "uint256"
        }
      ],
      "stateMutability": "view",
      "type": "function"
    },
    {
      "inputs": [],
      "name": "getLotteryAmount",
      "outputs": [
        {
          "internalType": "uint256",
          "name": "",
          "type": "uint256"
        }
      ],
      "stateMutability": "view",
      "type": "function"
    }
  ],
  "bytecode": "0x608060405234801561001057600080fd5b506040516105ed3803806105ed83398101604081905261002f9161007c565b60008054600160a060020a03938416600160a060020a031991821617909155600180549290931691161790556100af565b8051600160a060020a038116811461007757600080fd5b919050565b6000806040838503121561008f57600080fd5b61009883610060565b91506100a660208401610060565b90509250929050565b61052f806100be6000396000f3fe608060405234801561001057600080fd5b506004361061005a5760e060020a600035046309d655e9811461005f5780632672f5261461007a57806341c1f5b4146100a5578063a537e19d146100b8578063a90b0f47146100c0575b600080fd5b6100676100ca565b6040519081526020015b60405180910390f35b60005461008d90600160a060020a031681565b604051600160a060020a039091168152602001610071565b60015461008d90600160a060020a031681565b610067610164565b6100c861020d565b005b6001546040517f70a08231000000000000000000000000000000000000000000000000000000008152306004820152600091600160a060020a0316906370a082319060240160206040518083038186803b15801561012757600080fd5b505afa15801561013b573d6000803e3d6000fd5b505050506040513d601f19601f8201168201806040525081019061015f919061043c565b905090565b600061015f61271061020760008054906101000a9004600160a060020a0316600160a060020a031663b627a4146040518163ffffffff1660e060020a02815260040160206040518083038186803b1580156101be57600080fd5b505afa1580156101d2573d6000803e3d6000fd5b505050506040513d601f19601f820116820180604052508101906101f69190610455565b60ff166102016100ca565b906103d2565b906103e5565b600054600160a060020a031633146102ab576040517f08c379a000000000000000000000000000000000000000000000000000000000815260206004820152602760248201527f4f6e6c7920676f7665726e6d656e742063616e2063616c6c207468697320667560448201527f6e6374696f6e2e00000000000000000000000000000000000000000000000000606482015260840160405180910390fd5b600154600054604080517ffc7d91780000000000000000000000000000000000000000000000000000000081529051600160a060020a039384169363a9059cbb93169163fc7d9178916004808301926020929190829003018186803b15801561031357600080fd5b505afa158015610327573d6000803e3d6000fd5b505050506040513d601f19601f8201168201806040525081019061034b91906103f1565b610353610164565b60405160e060020a63ffffffff8516028152600160a060020a0390921660048301526024820152604401602060405180830381600087803b15801561039757600080fd5b505af11580156103ab573d6000803e3d6000fd5b505050506040513d601f19601f820116820180604052508101906103cf919061041a565b50565b60006103de82846104b3565b9392505050565b60006103de8284610478565b60006020828403121561040357600080fd5b8151600160a060020a03811681146103de57600080fd5b60006020828403121561042c57600080fd5b815180151581146103de57600080fd5b60006020828403121561044e57600080fd5b5051919050565b60006020828403121561046757600080fd5b815160ff811681146103de57600080fd5b6000826104ae577f4e487b7100000000000000000000000000000000000000000000000000000000600052601260045260246000fd5b500490565b60008160001904831182151516156104f4577f4e487b7100000000000000000000000000000000000000000000000000000000600052601160045260246000fd5b50029056fea2646970667358221220a6fed44b8f718aee77c8652e1d37e93adac4ee3a39d57c26c97ef2236399191c64736f6c63430008050033",
  "immutableReferences": {},
  "source": "// SPDX-License-Identifier: MIT\r\npragma solidity 0.8.5;\r\n\r\nimport \"@openzeppelin/contracts/token/ERC20/IERC20.sol\";\r\nimport \"@openzeppelin/contracts/utils/math/SafeMath.sol\";\r\nimport \"./DreamGovernment.sol\";\r\n\r\n/// @title Tax pool for Dream Government\r\n/// @author Lars Raschke\r\n/// @notice This pool collects all fees by a simple transfer on dream token.\r\n/// On the end of each government cycle the government sends an amount voted by the\r\n/// stakers to the lottery pool.\r\ncontract TaxPool {\r\n    using SafeMath for uint256;\r\n    \r\n    DreamGovernment public government; // government contract \r\n    IERC20 public dreamToken;          //erc20 dreamtoken contract\r\n    \r\n    // modifier to restrict functions access only for government\r\n    modifier onlyGovernment() {\r\n        require(\r\n            msg.sender == address(government),\r\n            \"Only government can call this function.\"\r\n        );\r\n        _;\r\n    }\r\n    \r\n    /// @notice Setting references for government and dream token contracts\r\n    /// @param _govAddress The address of the government contract\r\n    /// @param _tokenAddress The address of the token contract\r\n    constructor(address _govAddress, address _tokenAddress) {\r\n        government = DreamGovernment(_govAddress);\r\n        dreamToken = IERC20(_tokenAddress);\r\n    }\r\n    \r\n    /// @notice Sending voted proportion of the tax pool to lottery contract\r\n    function collectTaxesForLottery() external onlyGovernment{\r\n        dreamToken.transfer(government.getLotteryAddress(), getLotteryAmount());\r\n    }\r\n    \r\n    /// @notice Get current amount of DreamToken in tax pool \r\n    /// @return current balance of tax pool\r\n    function getTotalTaxes() public view returns(uint256){\r\n        return dreamToken.balanceOf(address(this));\r\n    }\r\n    \r\n    /// @notice Calculating total amount of lottery with currently voted proportion\r\n    /// @return current lottery amount\r\n    function getLotteryAmount() public view returns(uint256){\r\n        return getTotalTaxes().mul(government.getLotteryRate()).div(10000);\r\n    }\r\n}",
  "sourcePath": "C:\\Users\\larsr\\Documents\\fh\\Bewerbung\\DreamGov\\contracts\\TaxPool.sol",
  "compiler": {
    "name": "solc",
    "version": "0.8.5+commit.a4f2e591.Emscripten.clang"
  },
  "schemaVersion": "3.3.4",
  "updatedAt": "2021-06-14T16:44:13.988Z",
  "devdoc": {
    "author": "Lars Raschke",
    "kind": "dev",
    "methods": {
      "constructor": {
        "params": {
          "_govAddress": "The address of the government contract",
          "_tokenAddress": "The address of the token contract"
        }
      },
      "getLotteryAmount()": {
        "returns": {
          "_0": "current lottery amount"
        }
      },
      "getTotalTaxes()": {
        "returns": {
          "_0": "current balance of tax pool"
        }
      }
    },
    "title": "Tax pool for Dream Government",
    "version": 1
  },
  "userdoc": {
    "kind": "user",
    "methods": {
      "collectTaxesForLottery()": {
        "notice": "Sending voted proportion of the tax pool to lottery contract"
      },
      "constructor": {
        "notice": "Setting references for government and dream token contracts"
      },
      "getLotteryAmount()": {
        "notice": "Calculating total amount of lottery with currently voted proportion"
      },
      "getTotalTaxes()": {
        "notice": "Get current amount of DreamToken in tax pool "
      }
    },
    "notice": "This pool collects all fees by a simple transfer on dream token. On the end of each government cycle the government sends an amount voted by the stakers to the lottery pool.",
    "version": 1
  }
}